S00B000042434D2E7372656347
S11300000C942A000C9434020C945D020C94860225
S11300100C9447000C94D8020C9447000C944700AD
S11300200C9447000C9447000C9447000C94470030
S11300300C94AF020C949A030C9447000C94CA03DA
S11300400C9447000C9447000C9447000C94470010
S11300500C94470011241FBECFE5D8E0DEBFCDBF0E
S113006010E0A0E6B0E0E6E4FAE002C005900D92EC
S1130070AC38B107D9F720E0ACE8B0E001C01D927C
S1130080A03AB207E1F70E9490000C9421050C9469
S11300900000789483E890E00E940304409161009A
S11300A06DE670E083E890E00E94140440916200E1
S11300B064E670E083E890E00E94140440916000DC
S11300C063E670E083E890E00E94140480E00E94FC
S11300D07E0081E00E947E00089561E083E890E064
S11300E00E9472048A3021F480E00E9487000895FF
S11300F08B3019F481E00E9487000895883228F437
S113010060E00E94950080E0089581E008958832BF
S113011028F461E00E94970180E0089581E0089549
S11301200E9449000E946D00FDCF982F96959695E8
S113013096958770953008F0F8C0613031F008F476
S1130140A4C0623009F451C0EFC09130C1F028F06E
S1130150923039F19330B9F1E7C04AB321E030E08D
S1130160B90102C0660F771F8A95E2F7CB0180952B
S1130170942F98239ABB9BB389238BBBD5C047B3D9
S113018021E030E0B90102C0660F771F8A95E2F7DB
S1130190CB018095942F982397BB98B3892388BB70
S11301A0C3C044B321E030E0B90102C0660F771F39
S11301B08A95E2F7CB018095942F982394BB95B34D
S11301C0892385BBB1C041B321E030E0B90102C04D
S11301D0660F771F8A95E2F7CB018095942F9823B9
S11301E091BB92B3892382BB9FC09130C1F028F0A8
S11301F0923039F19330B9F197C04AB321E030E03D
S1130200B90102C0660F771F8A95E2F7CB01962FDA
S1130210909594239ABB9BB3892B8BBB85C047B322
S113022021E030E0B90102C0660F771F8A95E2F73A
S1130230CB01962F9095942397BB98B3892B88BBB9
S113024073C044B321E030E0B90102C0660F771FE8
S11302508A95E2F7CB01962F9095942394BB95B39E
S1130260892B85BB61C041B321E030E0B90102C0F4
S1130270660F771F8A95E2F7CB01962F909594230A
S113028091BB92B3892B82BB4FC09130C1F028F04F
S1130290923039F19330B9F147C04BB321E030E0EB
S11302A0B90102C0660F771F8A95E2F7CB01962F3A
S11302B0909594239BBB9AB3892B8ABB35C048B3D2
S11302C021E030E0B90102C0660F771F8A95E2F79A
S11302D0CB01962F9095942398BB97B3892B87BB1A
S11302E023C045B321E030E0B90102C0660F771F97
S11302F08A95E2F7CB01962F9095942395BB94B3FE
S1130300892B84BB11C042B321E030E0B90102C0A3
S1130310660F771F8A95E2F7CB01962F9095942369
S113032092BB91B3892B81BB089582E00895982FE5
S11303309695969596958770953008F08DC06330A4
S113034008F08CC0613009F040C09130A1F028F071
S11303509230F9F0933059F183C04BB321E030E08F
S1130360B90102C0660F771F8A95E2F7CB01842B8F
S11303708BBB80E0089548B321E030E0B90102C0AE
S1130380660F771F8A95E2F7CB01842B88BB80E048
S1130390089545B321E030E0B90102C0660F771F2C
S11303A08A95E2F7CB01842B85BB80E0089542B3A4
S11303B021E030E0B90102C0660F771F8A95E2F7A9
S11303C0CB01842B82BB80E00895611144C091303D
S11303D0A9F028F0923009F1933071F143C04BB386
S11303E021E030E0B90102C0660F771F8A95E2F779
S11303F0CB01809584238BBB80E0089548B321E032
S113040030E0B90102C0660F771F8A95E2F7CB018D
S11304108095842388BB80E0089545B321E030E0D3
S1130420B90102C0660F771F8A95E2F7CB01809568
S1130430842385BB80E0089542B321E030E0B90114
S113044002C0660F771F8A95E2F7CB01809584235B
S113045082BB80E00895089582E0089583E00895C2
S113046080E0089580E008951F920F920FB60F92D6
S113047011242F933F934F935F936F937F938F93A5
S11304809F93AF93BF93EF93FF93E0919000F0910C
S11304909100309709F00995FF91EF91BF91AF91C9
S11304A09F918F917F916F915F914F913F912F9188
S11304B00F900FBE0F901F9018951F920F920FB6BA
S11304C00F9211242F933F934F935F936F937F93D6
S11304D08F939F93AF93BF93EF93FF93E0918E001D
S11304E0F0918F00309709F00995FF91EF91BF913A
S11304F0AF919F918F917F916F915F914F913F91B8
S11305002F910F900FBE0F901F9018951F920F926E
S11305100FB60F9211242F933F934F935F936F93D2
S11305207F938F939F93AF93BF93EF93FF93E09148
S11305308C00F0918D00309709F00995FF91EF91AF
S1130540BF91AF919F918F917F916F915F914F91E7
S11305503F912F910F900FBE0F901F9018951F92EF
S11305600F920FB60F9211242F933F934F935F93E3
S11305706F937F938F939F93AF93BF93EF93FF9367
S1130580E0919200F0919300309709F00995FF9162
S1130590EF91BF91AF919F918F917F916F915F91F7
S11305A04F913F912F910F900FBE0F901F90189570
S11305B01F920F920FB60F9211240F900FBE0F903F
S11305C01F90189580B5806880BD8091710081303E
S11305D049F018F0823059F012C08AB188608AB9A3
S11305E080E00EC08AB180618AB980E009C08AB116
S11305F080618AB98AB188608AB980E001C081E0EB
S113060090917000992319F0913041F00DC09BB185
S11306109D7F9BB993E399B910BC07C09BB19260CD
S11306209BB919B810BC01C081E09091720091305F
S113063059F018F0923079F015C090B59F7E90BDB6
S113064090B59F7D90BD0FC090B59F7E90BD90B535
S1130650906290BD08C090B5906190BD90B59062D5
S113066090BD01C081E090917300992319F09130FD
S113067029F008C090B5906490BD05C090B59F7BEB
S113068090BD01C081E090917400992319F09130DC
S113069029F008C090B5977F90BD05C090B59860CB
S11306A090BD01C081E0909175009230F9F028F47A
S11306B0992341F0913081F037C0933009F194309F
S11306C049F132C090B59D7F90BD90B59B7F90BDA0
S11306D09AB19B7F9AB9089590B5926090BD90B5F8
S11306E09B7F90BD9AB19B7F9AB9089590B59D7FE9
S11306F090BD90B5946090BD9AB19B7F9AB90895CE
S113070090B5926090BD90B5946090BD9AB19B7F76
S11307109AB9089590B5926090BD90B5946090BDDB
S11307209AB194609AB9089581E008958AB1806875
S11307308AB908951F920F920FB60F9211242F9326
S11307403F934F935F936F937F938F939F93AF9355
S1130750BF93EF93FF93E0919600F0919700309749
S113076009F00995FF91EF91BF91AF919F918F91FE
S11307707F916F915F914F913F912F910F900FBE99
S11307800F901F9018958CB10895909397008093C3
S1130790960008951F920F920FB60F9211242F9373
S11307A03F934F935F936F937F938F939F93AF93F5
S11307B0BF93EF93FF93E0919400F09195003097ED
S11307C009F00995FF91EF91BF91AF919F918F919E
S11307D07F916F915F914F913F912F910F900FBE39
S11307E00F901F9018958AB180648AB908959093E8
S11307F095008093940008958CB908950E949603FF
S11308000E94F3030895CF93DF93009749F0EC011E
S1130810E881F9810995EA81FB81099581E001C0AC
S113082082E0DF91CF910895009709F455C0FC014F
S113083080819181825E924009F051C08091820052
S11308408730F1F461157105D9F020919D00822F54
S113085090E0FC01EE0FFF1F7183608388539F4F6C
S1130860FC01EE0FFF1F50E05183408381E0809331
S11308709F002F5F20939D0088E0809382002FC00B
S11308808830E9F461157105D1F0E0919D008E2F57
S113089090E0DC01AA0FBB1F6D937C9388539F4F9C
S11308A0DC01AA0FBB1F50E04D935C93EF5FE09314
S11308B09D00F0E0EE0FFF1F1182108210C0672B25
S11308C071F4E0919D00F0E0EE0FFF1F11821082A1
S11308D089E08093820003C082E08093820080914B
S11308E082000895CF93DF93DC0180919C008111F5
S11308F002C060939C0090919B00292F30E0F90185
S1130900E853FF4FEE0FFF1F608171814D915C91A1
S1130910425E524009F088C080919C00813009F009
S113092047C080919F00813009F07EC040919A00B9
S113093050E046175707D0F410929F00F901EE0FCC
S1130940FF1F80819181FC01E40FF51F80810E94CB
S1130950FC0389E195E00E94F70380919A008F5F80
S113096080939A0083E0809399005EC046175707EE
S113097008F45AC010929F008AE0809399009F5F08
S113098090939B00E92FF0E0EE0FFF1F808191818F
S1130990892B41F081E080939F0010929A0010927D
S11309A0990042C010929A0082E080939C003CC05F
S11309B08230B9F58DE195E00E94C50380919E00D7
S11309C0823091F5C0919800D0E00E94C303C05ECC
S11309D0DC4F8883E0919A00F0E0E05EFC4F808178
S11309E0882311F180919800E82FF0E0E05EFC4F3D
S11309F09081963269F41092980081E080939C0073
S1130A0080939F008BE08093990010929E000CC00D
S1130A1094E0909399008F5F8093980010929E00C9
S1130A2003C081E08093990080919900DF91CF9178
S1130A30089581E080939F00089582E080939E0052
S1090A400895F894FFCFB5
S1130A46010309264F5045524154494E4742434DEE
S1130A560002000100030000000000000000000086
S10F0A66000007E202FE03000000000094
S9030000FC
