:100000000C942A000C9442020C946B020C949402FF
:100010000C9447000C94E6020C9447000C944700A3
:100020000C9447000C9447000C9447000C94470034
:100030000C94BD020C94A8030C9447000C94D803B4
:100040000C9447000C9447000C9447000C94470014
:100050000C94470011241FBECFE5D8E0DEBFCDBF12
:1000600010E0A0E6B0E0E2E6FAE002C005900D92F2
:10007000A439B107D9F720E0A4E9B0E001C01D928E
:10008000A83AB207E1F70E949E000C942F050C9449
:10009000000078948BE890E00E9411044091630086
:1000A00065E770E08BE890E00E94220440916200D6
:1000B0006EE670E08BE890E00E94220440916100BF
:1000C00065E670E08BE890E00E94220440916000B9
:1000D00064E670E08BE890E00E94220480E090E00B
:1000E0000E948C0081E090E00E948C000895CF93E4
:1000F00062E08BE890E00E948004C82F8A3021F4EF
:1001000080E090E00E949500CB3021F481E090E007
:100110000E949500CF910895883228F460E00E94F3
:10012000A30080E0089581E00895883228F461E01A
:100130000E94A50180E0089581E008950E94490091
:100140000E947700FDCF982F96959695969587708B
:10015000953008F0F8C0613031F008F4A4C0623086
:1001600009F451C0EFC09130C1F028F0923039F15C
:100170009330B9F1E7C04AB321E030E0B90102C0E1
:10018000660F771F8A95E2F7CB018095942F98230D
:100190009ABB9BB389238BBBD5C047B321E030E02A
:1001A000B90102C0660F771F8A95E2F7CB018095EF
:1001B000942F982397BB98B3892388BBC3C044B3BB
:1001C00021E030E0B90102C0660F771F8A95E2F79F
:1001D000CB018095942F982394BB95B3892385BB3D
:1001E000B1C041B321E030E0B90102C0660F771F12
:1001F0008A95E2F7CB018095942F982391BB92B317
:10020000892382BB9FC09130C1F028F0923039F130
:100210009330B9F197C04AB321E030E0B90102C090
:10022000660F771F8A95E2F7CB01962F909594235E
:100230009ABB9BB3892B8BBB85C047B321E030E0D1
:10024000B90102C0660F771F8A95E2F7CB01962F9E
:100250009095942397BB98B3892B88BB73C044B304
:1002600021E030E0B90102C0660F771F8A95E2F7FE
:10027000CB01962F9095942394BB95B3892B85BB86
:1002800061C041B321E030E0B90102C0660F771FC1
:100290008A95E2F7CB01962F9095942391BB92B368
:1002A000892B82BB4FC09130C1F028F0923039F1D8
:1002B0009330B9F147C04BB321E030E0B90102C03F
:1002C000660F771F8A95E2F7CB01962F90959423BE
:1002D0009BBB9AB3892B8ABB35C048B321E030E081
:1002E000B90102C0660F771F8A95E2F7CB01962FFE
:1002F0009095942398BB97B3892B87BB23C045B3B4
:1003000021E030E0B90102C0660F771F8A95E2F75D
:10031000CB01962F9095942395BB94B3892B84BBE6
:1003200011C042B321E030E0B90102C0660F771F6F
:100330008A95E2F7CB01962F9095942392BB91B3C7
:10034000892B81BB089582E00895982F9695969504
:1003500096958770953008F08DC0633008F08CC09A
:10036000613009F040C09130A1F028F09230F9F0EE
:10037000933059F183C04BB321E030E0B90102C0A2
:10038000660F771F8A95E2F7CB01842B8BBB80E049
:10039000089548B321E030E0B90102C0660F771F2D
:1003A0008A95E2F7CB01842B88BB80E0089545B3A2
:1003B00021E030E0B90102C0660F771F8A95E2F7AD
:1003C000CB01842B85BB80E0089542B321E030E06F
:1003D000B90102C0660F771F8A95E2F7CB01842B23
:1003E00082BB80E00895611144C09130A9F028F0EB
:1003F000923009F1933071F143C04BB321E030E00A
:10040000B90102C0660F771F8A95E2F7CB0180958C
:1004100084238BBB80E0089548B321E030E0B9012C
:1004200002C0660F771F8A95E2F7CB01809584237F
:1004300088BB80E0089545B321E030E0B90102C0F7
:10044000660F771F8A95E2F7CB018095842385BBE1
:1004500080E0089542B321E030E0B90102C0660FA8
:10046000771F8A95E2F7CB018095842382BB80E0D9
:100470000895089582E0089583E0089580E0089546
:1004800080E008951F920F920FB60F9211242F93C0
:100490003F934F935F936F937F938F939F93AF930C
:1004A000BF93EF93FF93E0919800F09199003097FC
:1004B00009F00995FF91EF91BF91AF919F918F91B5
:1004C0007F916F915F914F913F912F910F900FBE50
:1004D0000F901F9018951F920F920FB60F92112434
:1004E0002F933F934F935F936F937F938F939F933C
:1004F000AF93BF93EF93FF93E0919600F091970035
:10050000309709F00995FF91EF91BF91AF919F91BD
:100510008F917F916F915F914F913F912F910F90AC
:100520000FBE0F901F9018951F920F920FB60F924B
:1005300011242F933F934F935F936F937F938F93E8
:100540009F93AF93BF93EF93FF93E0919400F0914B
:100550009500309709F00995FF91EF91BF91AF9108
:100560009F918F917F916F915F914F913F912F91CB
:100570000F900FBE0F901F9018951F920F920FB6FD
:100580000F9211242F933F934F935F936F937F9319
:100590008F939F93AF93BF93EF93FF93E0919A0054
:1005A000F0919B00309709F00995FF91EF91BF9171
:1005B000AF919F918F917F916F915F914F913F91FB
:1005C0002F910F900FBE0F901F9018951F920F92B2
:1005D0000FB60F9211240F900FBE0F901F90189519
:1005E00080B5806880BD80917900813049F018F035
:1005F000823059F012C08AB188608AB980E00EC09A
:100600008AB180618AB980E009C08AB180618AB903
:100610008AB188608AB980E001C081E09091780059
:10062000992319F0913041F00DC09BB19D7F9BB98A
:1006300093E399B910BC07C09BB192609BB919B8FC
:1006400010BC01C081E090917A00913059F018F00F
:10065000923079F015C090B59F7E90BD90B59F7D8A
:1006600090BD0FC090B59F7E90BD90B5906290BD3B
:1006700008C090B5906190BD90B5906290BD01C0EA
:1006800081E090917B00992319F0913029F008C006
:1006900090B5906490BD05C090B59F7B90BD01C0A2
:1006A00081E090917C00992319F0913029F008C0E5
:1006B00090B5977F90BD05C090B5986090BD01C082
:1006C00081E090917D009230F9F028F4992341F077
:1006D000913081F037C0933009F1943049F132C044
:1006E00090B59D7F90BD90B59B7F90BD9AB19B7F4B
:1006F0009AB9089590B5926090BD90B59B7F90BDDA
:100700009AB19B7F9AB9089590B59D7F90BD90B5A1
:10071000946090BD9AB19B7F9AB9089590B592600C
:1007200090BD90B5946090BD9AB19B7F9AB90895A1
:1007300090B5926090BD90B5946090BD9AB1946070
:100740009AB9089581E008958AB180688AB90895B8
:100750001F920F920FB60F9211242F933F934F9336
:100760005F936F937F938F939F93AF93BF93EF9319
:10077000FF93E0919E00F0919F00309709F009955A
:10078000FF91EF91BF91AF919F918F917F916F9169
:100790005F914F913F912F910F900FBE0F901F903F
:1007A00018958CB1089590939F0080939E000895B2
:1007B0001F920F920FB60F9211242F933F934F93D6
:1007C0005F936F937F938F939F93AF93BF93EF93B9
:1007D000FF93E0919C00F0919D00309709F00995FE
:1007E000FF91EF91BF91AF919F918F917F916F9109
:1007F0005F914F913F912F910F900FBE0F901F90DF
:1008000018958AB180648AB9089590939D00809369
:100810009C0008958CB908950E94A4030E940104CD
:100820000895CF93DF93009749F0EC01E881F981B7
:100830000995EA81FB81099581E001C082E0DF91A1
:10084000CF910895009709F455C0FC0180819181F2
:10085000805F924009F051C080918A008730F1F4A6
:1008600061157105D9F02091A500822F90E0FC015F
:10087000EE0FFF1F7183608388539F4FFC01EE0FC3
:10088000FF1F50E05183408381E08093A7002F5FDA
:100890002093A50088E080938A002FC08830E9F477
:1008A00061157105D1F0E091A5008E2F90E0DC017B
:1008B000AA0FBB1F6D937C9388539F4FDC01AA0F37
:1008C000BB1F50E04D935C93EF5FE093A500F0E019
:1008D000EE0FFF1F1182108210C0672B71F4E091A0
:1008E000A500F0E0EE0FFF1F1182108289E08093D7
:1008F0008A0003C082E080938A0080918A00089574
:10090000CF93DF93DC018091A400811102C060933A
:10091000A4009091A300292F30E0F901E853FF4F84
:10092000EE0FFF1F608171814D915C91405F5240DD
:1009300009F088C08091A400813009F047C08091FF
:10094000A700813009F07EC04091A20050E0461718
:100950005707D0F41092A700F901EE0FFF1F808116
:100960009181FC01E40FF51F80810E940A0487E257
:1009700095E00E9405048091A2008F5F8093A20001
:1009800083E08093A1005EC04617570708F45AC061
:100990001092A7008AE08093A1009F5F9093A3002C
:1009A000E92FF0E0EE0FFF1F80819181892B41F04C
:1009B00081E08093A7001092A2001092A10042C093
:1009C0001092A20082E08093A4003CC08230B9F56E
:1009D0008BE295E00E94D3038091A600823091F5CE
:1009E000C091A000D0E00E94D103C05EDC4F88839C
:1009F000E091A200F0E0E05EFC4F8081882311F1DD
:100A00008091A000E82FF0E0E05EFC4F90819632EC
:100A100069F41092A00081E08093A4008093A70065
:100A20008BE08093A1001092A6000CC094E09093FC
:100A3000A1008F5F8093A0001092A60003C081E008
:100A40008093A1008091A100DF91CF91089581E072
:100A50008093A700089582E08093A6000895F894FB
:020A6000FFCFC6
:100A620001090703264F5045524154494E47434F0F
:100A72004E4649524D42434D000200010003000020
:100A82000000000000000000000007F0020C04005B
:040A92000000000060
:00000001FF
